:060000000A128A11E92F2B
:1000640050340034F4014E28F5011A30F300F8300E
:10007400F200F20B3B28F30B3B2800000130F200A6
:100084007208F50764307502031C49284A2837288A
:100094000130F2007208F4077108803A803C031DB5
:1000A400552870087402031C58285928362808005B
:1000B400F800F401F5017008F200F3017208F6008B
:1000C4007308F700781C672868286E287608F407F8
:1000D4000318F50A7708F50701300310F60DF70D3C
:1000E400FF3E031D6F280310F80C7808031D7B28BE
:1000F4007C2864287508F1007408F00008000030BA
:100104007005F80000307105F90080307205FA00BE
:100114007F307305FB007B087A0479047804031D9F
:10012400942895289D280030F3000030F200003018
:10013400F1000030F00000307405F800003075055F
:10014400F90080307605FA007F307705FB007B08E4
:100154007A0479047804031DB028B128B928003042
:10016400F7000030F6000030F5000030F400F31F13
:10017400BC28BD28E1280030F8000030F900003028
:10018400FA008030FB007008F8027108031C710F3C
:10019400CC28CD28F9027208031C720FD228D32868
:1001A400FA027308031C730FD828D928FB027B08B2
:1001B400F3007A08F2007908F1007808F000F71FDC
:1001C400E428E52809290030F8000030F90000305F
:1001D400FA008030FB007408F8027508031C750FE0
:1001E400F428F528F9027608031C760FFA28FB2870
:1001F400FA027708031C770F00290129FB027B0808
:10020400F7007A08F6007908F5007808F4008030E1
:10021400F3068030F70677087302031D1B2976085E
:100224007202031D1B2975087102031D1B29740822
:10023400700203181E291F292129031022290314DF
:100244000800F80078080319282929293D29F31FF3
:100254002C292D293D297009FA007109FB00720926
:10026400FC007309FD00FA0A0319FB0A0319FC0ACE
:100274000319FD0A45297308FD007208FC00710882
:10028400FB007008FA007308720471047004031D03
:100294004C294D2956290030F3000030F20000307B
:1002A400F1000030F000DC299630F4007408F90005
:1002B40068290130F4007408F90701300310FD0CBB
:1002C400FC0CFB0CFA0CFF3E031D6029FE307D057F
:1002D400031D6D296E295B298A290130F4007408F5
:1002E400F9070130FA07003003180130FB0700302A
:1002F40003180130FC07003003180130FD070130FA
:100304000310FD0CFC0CFB0CFA0CFF3E031D8229B0
:10031400FF307D05031D8F2990296F299C29013009
:10032400F9020130F4000310FA0DFB0DFC0DFD0D74
:10033400F40B9529FC1B9F29A029A62902307902D8
:100344000318A529A62991297918A929AA29B22926
:10035400FF30FA05FF30FB057F30FC05FF30FD055B
:100364000310F90C7908F400F501F601F7011830CF
:100374000310F40DF50DF60DF70DFF3E031DBA291C
:100384007408FA047508FB047608FC047708FD0475
:1003940078080319CE29CF29D429F31FD229D329C8
:1003A400D429FD177D08F3007C08F2007B08F100D6
:1003B4007A08F000080007308316031386000F3014
:1003C400870075308F0001308500013083160317D4
:1003D4008800831603138901C130831203139F001D
:1003E4008030831603139F008312031307118711B0
:1003F4000712061486140615831203139F149F18FC
:10040400042A052A012A1E08D900831603131E088C
:1004140083120313D8004130BD002330BC00D73011
:10042400BB000A30BA004030A300A030A200003064
:10043400A1000030A0005808F0005908F100F201B2
:10044400F30100300A128A1123210A128A11730857
:1004540083120313A7007208A6007108A500700890
:10046400A4000A128A1188240A128A11831203131F
:100474002308C1002208C0002108BF002008BE00D4
:100484000A128A11AB220A128A11831203133D083D
:10049400D7003C08D6003B08D5003A08D4005708DA
:1004A400F3005608F2005508F1005408F0004230F9
:1004B400F700A030F6000030F5000030F4000A1216
:1004C4008A1181200A128A110318692A6A2A6E2A5B
:1004D4008312031307158711831203135708F300BC
:1004E4005608F2005508F1005408F0004230F700B5
:1004F400A030F6000030F5000030F4000A128A1132
:1005040081200A128A11031C882A892A8D2A8312BF
:10051400031307118715831203130618922A932ACB
:10052400952A07158711861C982A992A9D2A061947
:100534009C2A9D2A9E2A07160530F0000030F100FF
:100544000A128A1134200A128A11FE290A128A1107
:1005540000288312031341088039C2004208CB00EB
:100564004108C2004207C3004308D200C01FBB2A8F
:10057400BC2ABD2A521452080319C12AC22AD22AFB
:10058400520A031DC62AC72ACF2A0030C1000030F0
:10059400C0000030BF000030BE00C017C101DA2A1D
:1005A4000030C1000030C0000030BF000030BE0089
:1005B4003D088039C2004208CB063D08C20042070C
:1005C400C3004308D300BC1FE82AE92AEA2A5314CB
:1005D40053080319EE2AEF2AFF2A530A031DF32AAC
:1005E400F42AFC2A0030BD000030BC000030BB00FF
:1005F4000030BA00BC17BD01072B0030BD0000302D
:10060400BC000030BB000030BA003D083C043B0491
:100614003A04031D0E2B0F2B282B0030C100003091
:10062400C0000030BF000030BE008030C0047F3006
:10063400C1044B08C2004208C1044108BD0040087F
:10064400BC003F08BB003E08BA00872C5208031DBB
:100654002C2B2D2B362B0030BD000030BC0000307D
:10066400BB000030BA00872C5208C200C301430803
:10067400C50053084202C400031CC50344087F3E5E
:10068400CC0045080318013E003ECD004108CA00D5
:100694004008C9003F08C8003E08C7000030C10038
:1006A4000030C0000030BF000030BE000030D10078
:1006B4000030D0000030CF000030CE00D301AC2B8E
:1006C40053080319662B672B872B0130C2000310D4
:1006D400C70DC80DC90DCA0DC20B692B0130C2006C
:1006E4000310BE0DBF0DC00DC10DC20B722BD11F67
:1006F4007C2B7D2B7E2B3E140130C2000310CE0DCB
:10070400CF0DD00DD10DC20B802B3D084A02031D25
:10071400952B3C084902031D952B3B084802031DF9
:10072400952B3A084702031C982B992BA82B511799
:100734003A08C7023B08031C3B0FC8023C08031CD1
:100744003C0FC9023D08031C3D0FCA020130C20020
:100754004208D3071A305302031CB12BB22B622B6D
:100764004A084904480447040319B92BBA2BD92B66
:100774004E14D92B0130C2000310BE0DBF0DC00DA5
:10078400C10DC20BBE2BD11FC82BC92BCA2B3E14C3
:100794000130C2000310CE0DCF0DD00DD10DC20B10
:1007A400CC2BFF30CC070318CD0AFF30CD07C01F78
:1007B400DC2BDD2BBC2BD301D11FE12BE22BFE2B39
:1007C400FF304E05C200FF304F05C300FF30500517
:1007D400C4007F305105C500450844044304420465
:1007E4000319F52BF62BF92BD301D30AFE2B3E1C50
:1007F400FC2BFD2BFE2BF62B53080319022C032C88
:10080400342C0130BE07003003180130BF0700301C
:1008140003180130C007003003180130C107411C20
:10082400142C152C342C3E08C2003F08C300400889
:10083400C4004108C5000130C600450DC50CC40CF8
:10084400C30CC20CC60B1F2C4508C1004408C000D1
:100854004308BF004208BE000130CC070318CD0A8C
:100864000030CD074D08803AFF0080307F02031D21
:100874003D2CFF304C02031C402C412C4F2CFF30EC
:1008840083120313CC000030CD000030C1000030CF
:10089400C0000030BF000030BE00831203134D08B7
:1008A400803AFF0080307F02031D5A2C01304C0235
:1008B40003185D2C5E2C6B2C83120313CC01CD0129
:1008C4000030C1000030C0000030BF000030BE0066
:1008D400CB01831203134C08C2004208D200521CFD
:1008E400742C752C772CC0177B2C7F30C2004208E7
:1008F400C0055208C2000310420CC3004308C100E3
:100904004B08C2004208C1041F2B080083120313C2
:1009140023088039A8002808AD002308A800280768
:10092400A9002908B300A21F982C992C9A2C3314DF
:10093400330803199E2C9F2CAE2C330A031DA32CC1
:10094400A42CAC2C0030A3000030A2000030A10085
:100954000030A000A217B62C0030A3000030A20083
:100964000030A1000030A00027088039A800280822
:10097400AD062708A8002807A9002908B200A61F69
:10098400C42CC52CC62C321432080319CA2CCB2C07
:10099400DA2C320A031DCF2CD02CD82C0030A7001F
:1009A4000030A6000030A5000030A400A617E22CF9
:1009B4000030A7000030A6000030A5000030A400DD
:1009C40032080319E62CE72CEC2C3308031DEB2C1E
:1009D400EC2CF52C0030A3000030A2000030A10064
:1009E4000030A000E82F2008A8002808F0002608FE
:1009F4000A128A115A200A128A11710883120313E7
:100A0400B9007008B8003808A800A901AA01AB0110
:100A14002B08B1002A08B0002908AF002808AE004E
:100A24003908A800A901AA01AB012B08B7002A08BC
:100A3400B6002908B5002808B4002108A800280831
:100A4400F00025080A128A115A200A128A11710824
:100A540083120313B9007008B8003808A800A9016C
:100A6400AA01AB012808AE07290803110318013EA7
:100A740003193D2DAF072A0803110318013E03197A
:100A8400442DB0072B0803110318013E03194B2D05
:100A9400B1073908A800A901AA01AB012808B407C5
:100AA400290803110318013E0319592DB5072A0813
:100AB40003110318013E0319602DB6072B08031117
:100AC4000318013E0319672DB7072208A800280858
:100AD400F00024080A128A115A200A128A11710895
:100AE40083120313B9007008B8003808A800A901DC
:100AF400AA01AB012808AE07290803110318013E17
:100B04000319852DAF072A0803110318013E0319A1
:100B14008C2DB0072B0803110318013E0319932DE4
:100B2400B1073908A800A901AA01AB012808B40734
:100B3400290803110318013E0319A12DB5072A083A
:100B440003110318013E0319A82DB6072B0803113E
:100B54000318013E0319AF2DB7070830A80003108E
:100B6400AE0DAF0DB00DB10DA80BB12D2108A8002D
:100B74002808F00024080A128A115A200A128A113D
:100B8400710883120313B9007008B8003808A8006C
:100B94003908A900AA01AB012808AE0729080311E6
:100BA4000318013E0319D72DAF072A0803110318B0
:100BB400013E0319DE2DB0072B0803110318013E73
:100BC4000319E52DB1072008A8002808F00025081E
:100BD4000A128A115A200A128A1171088312031305
:100BE400B9007008B8003808A8003908A900AA019B
:100BF400AB012808AE07290803110318013E0319A5
:100C0400042EAF072A0803110318013E03190B2E03
:100C1400B0072B0803110318013E0319122EB10764
:100C24000830A8000310AE0DAF0DB00DB10DA80B28
:100C3400142E2008A8002808F00024080A128A119B
:100C44005A200A128A11710883120313B90070081A
:100C5400B8003808A8003908A900AA01AB0128087F
:100C6400AE07290803110318013E03193A2EAF07F2
:100C74002A0803110318013E0319412EB0072B085B
:100C840003110318013E0319482EB1072108A800D7
:100C94002808F00026080A128A115A200A128A111A
:100CA400710883120313B9007008B8003808A8004B
:100CB4003908A900AA01AB012808B40729080311BF
:100CC4000318013E0319672EB5072A0803110318F8
:100CD400013E03196E2EB6072B0803110318013EBB
:100CE4000319752EB7072208A8002808F000250864
:100CF4000A128A115A200A128A11710883120313E4
:100D0400B9007008B8003808A8003908A900AA0179
:100D1400AB012808B407290803110318013E03197D
:100D2400942EB5072A0803110318013E03199B2EBC
:100D3400B6072B0803110318013E0319A22EB707A7
:100D44002208A8002808F00026080A128A115A204E
:100D54000A128A11710883120313B9007008B800CB
:100D64003808A8003908A900AA01AB01083003100B
:100D7400A80DA90DAA0DAB0DFF3E031DB92E280821
:100D8400B407290803110318013E0319CA2EB50735
:100D94002A0803110318013E0319D12EB6072B08A4
:100DA40003110318013E0319D82EB7072E08A80013
:100DB4002F08A9003008AA003108AB00183003102E
:100DC400AB0CAA0CA90CA80CFF3E031DE12E2808AD
:100DD400B407290803110318013E0319F22EB507BD
:100DE4002A0803110318013E0319F92EB6072B082C
:100DF40003110318013E0319002FB7070830A80098
:100E04000310AE0DAF0DB00DB10DA80B022F3308BA
:100E14003207A800A901A90D2808823EB8002908B4
:100E24000318013EFF3EB900342F0130A80003101F
:100E3400B40DB50DB60DB70DA80B192FB11F232F87
:100E4400242F252F34140130A8000310AE0DAF0D4C
:100E5400B00DB10DA80B272FFF30B8070318B90A3E
:100E6400FF30B907B61F372F382F172FB201B11F24
:100E74003C2F3D2F592FFF302E05A800FF302F05A2
:100E8400A900FF303005AA007F303105AB002B08E4
:100E94002A04290428040319502F512F542FB20176
:100EA400B20A592F341C572F582F592F512F32085B
:100EB40003195D2F5E2F8F2F0130B4070030031804
:100EC4000130B507003003180130B60700300318AD
:100ED4000130B707371C6F2F702F8F2F3408A800ED
:100EE4003508A9003608AA003708AB000130AC0069
:100EF4002B0DAB0CAA0CA90CA80CAC0B7A2F2B084D
:100F0400B7002A08B6002908B5002808B400013043
:100F1400B8070318B90A0030B9073908803AFF0046
:100F240080307F02031D982FFF303802031C9B2F53
:100F34009C2FA72F7F3083120313B7008030B60095
:100F44000030B5000030B400DC2F831203133908DD
:100F5400803AFF0080307F02031DB22F0130380237
:100F64000318B52FB62FC22F003083120313B70016
:100F74000030B6000030B5000030B400AD01DC2F05
:100F8400831203133808A8002808B300FF30B405FF
:100F9400FF30B5057F30B6050030B705331CD32FBD
:100FA400D42FD52FB6173308A8000310280CA90096
:100FB4002908B7002D08A8002808B7043708A3009B
:100FC4003608A2003508A1003408A00008000A125F
:100FD4008A1132200A128A11DB000A128A11332084
:100FE4000A128A11DC00D401D501D601D701D80137
:0C0FF400D901DA0183010A128A11DD29FB
:04400E00C42FFF3F7D
:00000001FF
