:060000000A128A11FC2F18
:100F5C0007308316031385003F308600F830870076
:100F6C0075308F008316031789018312031306143F
:100F7C008614061586150616861689150710871011
:100F8C0007110618CA2FCB2FCE2F07148710071165
:100F9C008618D12FD22FD52F0714871007110619B9
:100FAC00D82FD92FDC2F0710871407118619DF2FA4
:100FBC00E02FE32F071087140711061AE62FE72FEF
:100FCC00EA2F071487100715861AED2FEE2FF12F35
:100FDC000714871007158919F42FF52FC72F071041
:100FEC0087100711C72F0A128A11002883010A12D1
:040FFC008A11AE2F79
:04400E00C42FFF3F7D
:00000001FF
