:100000000A128A11F82F00308A000408840A820735
:1000100000344B3445344534503420345734413463
:1000200052344D342E342E342E340034443449347A
:100030005334503445344E34533449344E344734B9
:100040002E342E34003442344F3449344C34493445
:100050004E3447342E342E342E3400345734453445
:100060004C3443344F344D3445342E342E34003424
:1000700042344F3449344C3449344E3447342E34AE
:040080002E340034E6
:100A5E0000300A128A113C250A128A1101300A123C
:100A6E008A113C250A128A110800F300831203131F
:100A7E00051073080A128A1156250A128A1183125A
:100A8E00031385140B30F2006230F100F10B4D2D83
:100A9E00F20B4D2D00008312031385100800F00099
:100AAE00701C5A2D5B2D5F2D831203130816622DB9
:100ABE00831203130812F01C652D662D682D8816FF
:100ACE00692D8812701D6C2D6D2D6F2D0817702DD0
:100ADE000813F01D732D742D762D8817772D88131E
:100AEE000800F700F501F6018F2D750877078400D1
:100AFE000A128A1103200A128A110A128A119D25DE
:100B0E000A128A110130F5070318F60A0030F607AB
:100B1E007508770784000A128A1103200A128A11B7
:100B2E00003A031D9B2D9C2D7C2D0800F4007408AB
:100B3E000F39F1007108F2007408F039F1007108F4
:100B4E00F3008312031305147308F100043003102D
:100B5E00F10CFF3E031DAE2D71080A128A115625A7
:100B6E000A128A118312031385141A30F100F10B45
:100B7E00BE2D000083120313851072080A128A110B
:100B8E0056250A128A118312031385141A30F100A6
:100B9E00F10BCF2D00008312031385100800F70010
:100BAE007703031DDB2DDC2DFF2D74087F3EF50032
:100BBE007508FA007A08F50004300310F50CFF3EB4
:100BCE00031DE42D7508F6007608F8007A080F3933
:100BDE00F5007508F90078080A128A113C250A12E8
:100BEE008A1179080A128A113C250A128A11272EB7
:100BFE0002307706031D042E052E272E7408BF3EE5
:100C0E00F5007508FA007A08F50004300310F50CAB
:100C1E00FF3E031D0D2E7508F6007608F8007A08C3
:100C2E000F39F5007508F90078080A128A113C256B
:100C3E000A128A1179080A128A113C250A128A119F
:100C4E00080000300A128A1156250A128A11343011
:100C5E00F500F130F400F40B322EF50B322E372E58
:100C6E0003300A128A113C250A128A110D30F50042
:100C7E00FB30F400F40B412EF50B412E462E0330C3
:100C8E000A128A113C250A128A111D30F500913084
:100C9E00F400F40B502EF50B502E03300A128A116D
:100CAE003C250A128A1102300A128A113C250A12B8
:100CBE008A1102300A128A113C250A128A11083052
:100CCE000A128A113C250A128A1100300A128A1160
:100CDE003C250A128A110C300A128A113C250A127E
:100CEE008A1100300A128A113C250A128A11063026
:100CFE000A128A113C250A128A1108008316031360
:100D0E0085013F3086008701880175308F0083167C
:100D1E00031788018901831203130614861406151E
:100D2E0086150616861606178915071287120713DB
:100D3E000A128A1128260A128A110630FD00133073
:100D4E00FC00AD30FB00FB0BAA2EFC0BAA2EFD0BFC
:100D5E00AA2EB12E0A128A112F250A128A110330D9
:100D6E00FD000830FC007730FB00FB0BBC2EFC0BAB
:100D7E00BC2EFD0BBC2E0A128A112F250A128A11C7
:100D8E00F401F40A01300A128A11D6250A128A11C8
:100D9E0026300A128A1178250A128A118312031339
:100DAE000618DA2EDB2E002F0A128A112F250A12B0
:100DBE008A11F401F40A01300A128A11D6250A1298
:100DCE008A1101300A128A1178250A128A118312A9
:100DDE0003130716871207130930FD001E30FC009F
:100DEE00E430FB00FB0BF92EFC0BF92EFD0BF92E5C
:100DFE000000831203138618052F062F2B2F0A12BD
:100E0E008A112F250A128A11F401F40A01300A12EE
:100E1E008A11D6250A128A1101300A128A117825F2
:100E2E000A128A1183120313071687120713093049
:100E3E00FD001E30FC00E430FB00FB0B242FFC0BEE
:100E4E00242FFD0B242F0000831203130619302FBD
:100E5E00312F562F0A128A112F250A128A11F401E8
:100E6E00F40A01300A128A11D6250A128A111B3091
:100E7E000A128A1178250A128A1183120313071295
:100E8E00871607130930FD001E30FC00E430FB000E
:100E9E00FB0B4F2FFC0B4F2FFD0B4F2F0000831220
:100EAE00031386195B2F5C2F812F0A128A112F25AF
:100EBE000A128A11F401F40A01300A128A11D62597
:100ECE000A128A1130300A128A1178250A128A11F2
:100EDE00831203130712871607130930FD001E3005
:100EEE00FC00E430FB00FB0B7A2FFC0B7A2FFD0B82
:100EFE007A2F000083120313061A862F872FAC2F2A
:100F0E000A128A112F250A128A11F401F40A0130ED
:100F1E000A128A11D6250A128A110E300A128A1165
:100F2E0078250A128A1183120313071687120717E0
:100F3E000930FD001E30FC00E430FB00FB0BA52F3A
:100F4E00FC0BA52FFD0BA52F000083120313861A91
:100F5E00B12FB22FD72F0A128A112F250A128A11FA
:100F6E00F401F40A01300A128A11D6250A128A11E6
:100F7E000E300A128A1178250A128A11831203136F
:100F8E000716871207170930FD001E30FC00E430EB
:100F9E00FB00FB0BD02FFC0BD02FFD0BD02F000036
:100FAE00831203138919DC2FDD2FB62E0A128A1134
:100FBE002F250A128A110B30FD002630FC005D3001
:100FCE00FB00FB0BE82FFC0BE82FFD0BE82FEF2FA0
:100FDE0083120313071287120713B62E0A128A11F1
:100FEE00002883120313A001A10183010A128A11A2
:020FFE00852E3E
:04400E00C42FFF3F7D
:00000001FF
