:060000000A128A11EA2F2A
:100BAA0038300A128A11F5250A128A110E300A12F1
:100BBA008A11F5250A128A1108007E088A007F0820
:100BCA0082000A128A11E2250A128A118000840A16
:100BDA0004087D0603190034FF0A0319FE0AE62DEC
:100BEA00F6007608831203138800051085108230F8
:100BFA00F500DD30F400F40B002EF50B002E052E67
:100C0A008312031385140800F6007608831203136F
:100C1A008800051485108230F500DD30F400F40BED
:100C2A00142EF50B142E192E8312031385140800A3
:100C3A00F001F1017108803AFF0080307F02031D44
:100C4A00282E0E307002031C2B2E2C2E2D2E432EF6
:100C5A000A128A11D5250A128A117008203E8400C8
:100C6A00831300080A128A1109260A128A1101300E
:100C7A00F0070318F10A0030F1071F2E01300A129B
:100C8A008A11F5250A128A1108002034573445348E
:100C9A004C3443344F344D3445342E342E342E34B0
:100CAA0020340034003400340034003420344B340F
:100CBA0045344534503420345734413452344D3459
:100CCA002E342E342E3420340034003400342034B0
:100CDA00443449345334503445344E34533449340B
:100CEA004E3447342E342E342E342034003400341B
:100CFA00203442344F3449344C3449344E34473426
:100D0A002E342E342E34203400340034003400348F
:100D1A000034FC308316031385003F308600F83018
:100D2A008700880175308F00831603178901C13047
:100D3A00831203139F008030831603139F008312CC
:100D4A000313061486140615861506168616061744
:100D5A008915071087100711831203130618B62E78
:100D6A00B72EE02E071487100711F001F101710860
:100D7A00803AFF0080307F02031DC52E11307002B9
:100D8A00031CC82EC92ECA2EE02E0A128A11D52596
:100D9A000A128A117008313E8400831300080A126D
:100DAA008A1109260A128A110130F0070318F10A7A
:100DBA000030F107BC2E831203138618E52EE62EA7
:100DCA000F2F071487100711F001F1017108803AFB
:100DDA00FF0080307F02031DF42E11307002031CC5
:100DEA00F72EF82EF92E0F2F0A128A11D5250A127C
:100DFA008A117008313E8400831300080A128A118E
:100E0A0009260A128A110130F0070318F10A003084
:100E1A00F107EB2E831203130619142F152F3E2FF9
:100E2A00071087140711F001F1017108803AFF00D9
:100E3A0080307F02031D232F11307002031C262FDE
:100E4A00272F282F3E2F0A128A11D5250A128A1116
:100E5A007008533E8400831300080A128A11092677
:100E6A000A128A110130F0070318F10A0030F1075B
:100E7A001A2F831203138619432F442F6D2F07103D
:100E8A0087140711F001F1017108803AFF008030E0
:100E9A007F02031D522F11307002031C552F562F4B
:100EAA00572F6D2F0A128A11D5250A128A11700836
:100EBA00533E8400831300080A128A1109260A1273
:100ECA008A110130F0070318F10A0030F107492F9F
:100EDA0083120313061A722F732F9C2F071487107D
:100EEA000715F001F1017108803AFF0080307F0296
:100EFA00031D812F0F307002031C842F852F862F2C
:100F0A009C2F0A128A11D5250A128A117008423EAC
:100F1A008400831300080A128A1109260A128A1108
:100F2A000130F0070318F10A0030F107782F831215
:100F3A000313861AA12FA22FCB2F07148710071588
:100F4A00F001F1017108803AFF0080307F02031D31
:100F5A00B02F0F307002031CB32FB42FB52FCB2F35
:100F6A000A128A11D5250A128A117008423E840093
:100F7A00831300080A128A1109260A128A110130FB
:100F8A00F0070318F10A0030F107A72F83120313A1
:100F9A008919D02FD12FD52F071087100711B12EFD
:100FAA000C300A128A11F5250A128A1183120313C8
:100FBA00061FE02FE12FB12E0A128A111D260A12EE
:100FCA008A11B12E0A128A11002883136430FD0097
:100FDA000630FE004A30FF00203084000A128A11CF
:100FEA00E6250A128A11F001F101F201F3018301E7
:060FFA000A128A118E2E7E
:04400E00C42FFF3F7D
:00000001FF
